{
  "contractName": "VeritasHelper",
  "abi": [
    {
      "inputs": [
        {
          "internalType": "uint256",
          "name": "",
          "type": "uint256"
        }
      ],
      "name": "products",
      "outputs": [
        {
          "internalType": "string",
          "name": "name",
          "type": "string"
        },
        {
          "internalType": "address",
          "name": "manufacturer",
          "type": "address"
        },
        {
          "internalType": "address",
          "name": "owner",
          "type": "address"
        }
      ],
      "stateMutability": "view",
      "type": "function"
    }
  ],
  "bytecode": "0x608060405234801561001057600080fd5b5061037b806100206000396000f3fe608060405234801561001057600080fd5b506004361061002b5760003560e01c80637acc0b2014610030575b600080fd5b61004a6004803603810190610045919061019f565b610062565b604051610059939291906102a6565b60405180910390f35b6001818154811061007257600080fd5b906000526020600020906003020160009150905080600001805461009590610313565b80601f01602080910402602001604051908101604052809291908181526020018280546100c190610313565b801561010e5780601f106100e35761010080835404028352916020019161010e565b820191906000526020600020905b8154815290600101906020018083116100f157829003601f168201915b5050505050908060010160009054906101000a900473ffffffffffffffffffffffffffffffffffffffff16908060020160009054906101000a900473ffffffffffffffffffffffffffffffffffffffff16905083565b600080fd5b6000819050919050565b61017c81610169565b811461018757600080fd5b50565b60008135905061019981610173565b92915050565b6000602082840312156101b5576101b4610164565b5b60006101c38482850161018a565b91505092915050565b600081519050919050565b600082825260208201905092915050565b60005b838110156102065780820151818401526020810190506101eb565b83811115610215576000848401525b50505050565b6000601f19601f8301169050919050565b6000610237826101cc565b61024181856101d7565b93506102518185602086016101e8565b61025a8161021b565b840191505092915050565b600073ffffffffffffffffffffffffffffffffffffffff82169050919050565b600061029082610265565b9050919050565b6102a081610285565b82525050565b600060608201905081810360008301526102c0818661022c565b90506102cf6020830185610297565b6102dc6040830184610297565b949350505050565b7f4e487b7100000000000000000000000000000000000000000000000000000000600052602260045260246000fd5b6000600282049050600182168061032b57607f821691505b6020821081141561033f5761033e6102e4565b5b5091905056fea2646970667358221220bf6dba177f13afd4652a48f2664ac0f4bf8460dd73556e8d8d5cfb8c0bf4d35a64736f6c634300080a0033",
  "immutableReferences": {},
  "source": "pragma solidity >=0.4.16 <0.9.0;\n\ncontract VeritasHelper {\n\n    address ceo;\n\n    struct Product {\n        string name;\n        address manufacturer;\n        address owner;\n    }\n\n    Product[] public products;\n\n    modifier isCEO(address _address) {\n        require(msg.sender == ceo);\n        _;\n    }\n\n    modifier isSaleAuthorized(address _address, uint _id) {\n        address owner = products[_id].owner;\n        require(msg.sender == ceo || msg.sender == owner);\n        _;\n    }\n\n}",
  "sourcePath": "/Users/rounaksalim/Documents/git/sjsu/Fall-2021/CMPE-272/Veritas/contracts/veritas-helper.sol",
  "compiler": {
    "name": "solc",
    "version": "0.8.10+commit.fc410830.Emscripten.clang"
  },
  "schemaVersion": "3.4.3",
  "updatedAt": "2021-11-29T04:22:32.165Z",
  "devdoc": {
    "kind": "dev",
    "methods": {},
    "version": 1
  },
  "userdoc": {
    "kind": "user",
    "methods": {},
    "version": 1
  }
}