{
  "contractName": "Veritas",
  "abi": [
    {
      "inputs": [],
      "stateMutability": "nonpayable",
      "type": "constructor"
    },
    {
      "inputs": [],
      "name": "getCEO",
      "outputs": [
        {
          "internalType": "address",
          "name": "",
          "type": "address"
        }
      ],
      "stateMutability": "view",
      "type": "function",
      "constant": true
    },
    {
      "inputs": [
        {
          "internalType": "uint256",
          "name": "_id",
          "type": "uint256"
        }
      ],
      "name": "getProduct",
      "outputs": [
        {
          "components": [
            {
              "internalType": "string",
              "name": "name",
              "type": "string"
            },
            {
              "internalType": "string",
              "name": "description",
              "type": "string"
            },
            {
              "internalType": "uint256",
              "name": "sku",
              "type": "uint256"
            },
            {
              "internalType": "uint256",
              "name": "id",
              "type": "uint256"
            },
            {
              "internalType": "address",
              "name": "manufacturer",
              "type": "address"
            },
            {
              "internalType": "address",
              "name": "owner",
              "type": "address"
            }
          ],
          "internalType": "struct VeritasHelper.Product",
          "name": "",
          "type": "tuple"
        }
      ],
      "stateMutability": "view",
      "type": "function",
      "constant": true
    },
    {
      "inputs": [],
      "name": "getProductCount",
      "outputs": [
        {
          "internalType": "uint256",
          "name": "",
          "type": "uint256"
        }
      ],
      "stateMutability": "view",
      "type": "function",
      "constant": true
    },
    {
      "inputs": [
        {
          "internalType": "address",
          "name": "_owner",
          "type": "address"
        }
      ],
      "name": "getProductCount",
      "outputs": [
        {
          "internalType": "uint256",
          "name": "",
          "type": "uint256"
        }
      ],
      "stateMutability": "view",
      "type": "function",
      "constant": true
    },
    {
      "inputs": [
        {
          "internalType": "uint256",
          "name": "_id",
          "type": "uint256"
        }
      ],
      "name": "getProductOwner",
      "outputs": [
        {
          "internalType": "address",
          "name": "",
          "type": "address"
        }
      ],
      "stateMutability": "view",
      "type": "function",
      "constant": true
    },
    {
      "inputs": [
        {
          "internalType": "address",
          "name": "",
          "type": "address"
        }
      ],
      "name": "productCount",
      "outputs": [
        {
          "internalType": "uint256",
          "name": "",
          "type": "uint256"
        }
      ],
      "stateMutability": "view",
      "type": "function",
      "constant": true
    },
    {
      "inputs": [
        {
          "internalType": "uint256",
          "name": "",
          "type": "uint256"
        }
      ],
      "name": "productOwners",
      "outputs": [
        {
          "internalType": "address",
          "name": "",
          "type": "address"
        }
      ],
      "stateMutability": "view",
      "type": "function",
      "constant": true
    },
    {
      "inputs": [
        {
          "internalType": "uint256",
          "name": "",
          "type": "uint256"
        }
      ],
      "name": "products",
      "outputs": [
        {
          "internalType": "string",
          "name": "name",
          "type": "string"
        },
        {
          "internalType": "string",
          "name": "description",
          "type": "string"
        },
        {
          "internalType": "uint256",
          "name": "sku",
          "type": "uint256"
        },
        {
          "internalType": "uint256",
          "name": "id",
          "type": "uint256"
        },
        {
          "internalType": "address",
          "name": "manufacturer",
          "type": "address"
        },
        {
          "internalType": "address",
          "name": "owner",
          "type": "address"
        }
      ],
      "stateMutability": "view",
      "type": "function",
      "constant": true
    },
    {
      "inputs": [
        {
          "internalType": "string",
          "name": "_name",
          "type": "string"
        },
        {
          "internalType": "string",
          "name": "description",
          "type": "string"
        },
        {
          "internalType": "uint256",
          "name": "sku",
          "type": "uint256"
        },
        {
          "internalType": "address",
          "name": "_manufacturer",
          "type": "address"
        }
      ],
      "name": "createProduct",
      "outputs": [
        {
          "internalType": "uint256",
          "name": "",
          "type": "uint256"
        }
      ],
      "stateMutability": "nonpayable",
      "type": "function"
    },
    {
      "inputs": [
        {
          "internalType": "uint256",
          "name": "_id",
          "type": "uint256"
        },
        {
          "internalType": "address",
          "name": "_owner",
          "type": "address"
        }
      ],
      "name": "sellProduct",
      "outputs": [],
      "stateMutability": "nonpayable",
      "type": "function"
    },
    {
      "inputs": [
        {
          "internalType": "uint256",
          "name": "_id",
          "type": "uint256"
        },
        {
          "internalType": "address",
          "name": "_newOwner",
          "type": "address"
        }
      ],
      "name": "transferProduct",
      "outputs": [],
      "stateMutability": "nonpayable",
      "type": "function"
    },
    {
      "inputs": [
        {
          "internalType": "address",
          "name": "_owner",
          "type": "address"
        }
      ],
      "name": "getAllProducts",
      "outputs": [
        {
          "components": [
            {
              "internalType": "string",
              "name": "name",
              "type": "string"
            },
            {
              "internalType": "string",
              "name": "description",
              "type": "string"
            },
            {
              "internalType": "uint256",
              "name": "sku",
              "type": "uint256"
            },
            {
              "internalType": "uint256",
              "name": "id",
              "type": "uint256"
            },
            {
              "internalType": "address",
              "name": "manufacturer",
              "type": "address"
            },
            {
              "internalType": "address",
              "name": "owner",
              "type": "address"
            }
          ],
          "internalType": "struct VeritasHelper.Product[]",
          "name": "",
          "type": "tuple[]"
        }
      ],
      "stateMutability": "view",
      "type": "function",
      "constant": true
    }
  ],
  "bytecode": "0x608060405234801561001057600080fd5b50336000806101000a81548173ffffffffffffffffffffffffffffffffffffffff021916908373ffffffffffffffffffffffffffffffffffffffff160217905550611bbb806100606000396000f3fe608060405234801561001057600080fd5b50600436106100b45760003560e01c8063ab66859811610071578063ab668598146101b8578063ad95a8a2146101e8578063b9db15b414610218578063c8b0e68d14610248578063e43059e514610266578063fe542c9b14610282576100b4565b80630b569140146100b95780630bfd6aad146100d557806315424f01146101055780634a348da91461013557806350208eee146101535780637acc0b2014610183575b600080fd5b6100d360048036038101906100ce91906113c7565b6102b2565b005b6100ef60048036038101906100ea9190611407565b6104f3565b6040516100fc919061163d565b60405180910390f35b61011f600480360381019061011a9190611407565b610872565b60405161012c919061166e565b60405180910390f35b61013d61088a565b60405161014a919061166e565b60405180910390f35b61016d60048036038101906101689190611407565b6108d1565b60405161017a919061166e565b60405180910390f35b61019d60048036038101906101989190611689565b61091a565b6040516101af9695949392919061170f565b60405180910390f35b6101d260048036038101906101cd91906118b3565b610ab6565b6040516101df919061166e565b60405180910390f35b61020260048036038101906101fd9190611689565b610d6c565b60405161020f9190611952565b60405180910390f35b610232600480360381019061022d9190611689565b610d9f565b60405161023f91906119fd565b60405180910390f35b610250610fbf565b60405161025d9190611952565b60405180910390f35b610280600480360381019061027b91906113c7565b610fe8565b005b61029c60048036038101906102979190611689565b611078565b6040516102a99190611952565b60405180910390f35b33826000600182815481106102ca576102c9611a1f565b5b906000526020600020906006020160050160009054906101000a900473ffffffffffffffffffffffffffffffffffffffff16905060008054906101000a900473ffffffffffffffffffffffffffffffffffffffff1673ffffffffffffffffffffffffffffffffffffffff168373ffffffffffffffffffffffffffffffffffffffff16148061038357508073ffffffffffffffffffffffffffffffffffffffff168373ffffffffffffffffffffffffffffffffffffffff16145b61038c57600080fd5b836002600087815260200190815260200160002060006101000a81548173ffffffffffffffffffffffffffffffffffffffff021916908373ffffffffffffffffffffffffffffffffffffffff16021790555083600186815481106103f3576103f2611a1f565b5b906000526020600020906006020160050160006101000a81548173ffffffffffffffffffffffffffffffffffffffff021916908373ffffffffffffffffffffffffffffffffffffffff160217905550600360008573ffffffffffffffffffffffffffffffffffffffff1673ffffffffffffffffffffffffffffffffffffffff168152602001908152602001600020600081548092919061049290611a7d565b9190505550600360003373ffffffffffffffffffffffffffffffffffffffff1673ffffffffffffffffffffffffffffffffffffffff16815260200190815260200160002060008154809291906104e790611ac6565b91905055505050505050565b60606000600360008473ffffffffffffffffffffffffffffffffffffffff1673ffffffffffffffffffffffffffffffffffffffff1681526020019081526020016000205467ffffffffffffffff8111156105505761054f611788565b5b60405190808252806020026020018201604052801561058957816020015b61057661121a565b81526020019060019003908161056e5790505b5090506000805b600180549050811015610867578473ffffffffffffffffffffffffffffffffffffffff16600182815481106105c8576105c7611a1f565b5b906000526020600020906006020160050160009054906101000a900473ffffffffffffffffffffffffffffffffffffffff1673ffffffffffffffffffffffffffffffffffffffff161415610854576001818154811061062a57610629611a1f565b5b90600052602060002090600602016040518060c001604052908160008201805461065390611b1f565b80601f016020809104026020016040519081016040528092919081815260200182805461067f90611b1f565b80156106cc5780601f106106a1576101008083540402835291602001916106cc565b820191906000526020600020905b8154815290600101906020018083116106af57829003601f168201915b505050505081526020016001820180546106e590611b1f565b80601f016020809104026020016040519081016040528092919081815260200182805461071190611b1f565b801561075e5780601f106107335761010080835404028352916020019161075e565b820191906000526020600020905b81548152906001019060200180831161074157829003601f168201915b5050505050815260200160028201548152602001600382015481526020016004820160009054906101000a900473ffffffffffffffffffffffffffffffffffffffff1673ffffffffffffffffffffffffffffffffffffffff1673ffffffffffffffffffffffffffffffffffffffff1681526020016005820160009054906101000a900473ffffffffffffffffffffffffffffffffffffffff1673ffffffffffffffffffffffffffffffffffffffff1673ffffffffffffffffffffffffffffffffffffffff168152505083838151811061083a57610839611a1f565b5b6020026020010181905250818061085090611a7d565b9250505b808061085f90611a7d565b915050610590565b508192505050919050565b60036020528060005260406000206000915090505481565b6000600360003373ffffffffffffffffffffffffffffffffffffffff1673ffffffffffffffffffffffffffffffffffffffff16815260200190815260200160002054905090565b6000600360008373ffffffffffffffffffffffffffffffffffffffff1673ffffffffffffffffffffffffffffffffffffffff168152602001908152602001600020549050919050565b6001818154811061092a57600080fd5b906000526020600020906006020160009150905080600001805461094d90611b1f565b80601f016020809104026020016040519081016040528092919081815260200182805461097990611b1f565b80156109c65780601f1061099b576101008083540402835291602001916109c6565b820191906000526020600020905b8154815290600101906020018083116109a957829003601f168201915b5050505050908060010180546109db90611b1f565b80601f0160208091040260200160405190810160405280929190818152602001828054610a0790611b1f565b8015610a545780601f10610a2957610100808354040283529160200191610a54565b820191906000526020600020905b815481529060010190602001808311610a3757829003601f168201915b5050505050908060020154908060030154908060040160009054906101000a900473ffffffffffffffffffffffffffffffffffffffff16908060050160009054906101000a900473ffffffffffffffffffffffffffffffffffffffff16905086565b60003360008054906101000a900473ffffffffffffffffffffffffffffffffffffffff1673ffffffffffffffffffffffffffffffffffffffff163373ffffffffffffffffffffffffffffffffffffffff1614610b1157600080fd5b60016040518060c001604052808881526020018781526020018681526020018681526020018573ffffffffffffffffffffffffffffffffffffffff1681526020018573ffffffffffffffffffffffffffffffffffffffff1681525090806001815401808255809150506001900390600052602060002090600602016000909190919091506000820151816000019080519060200190610bb192919061127c565b506020820151816001019080519060200190610bce92919061127c565b50604082015181600201556060820151816003015560808201518160040160006101000a81548173ffffffffffffffffffffffffffffffffffffffff021916908373ffffffffffffffffffffffffffffffffffffffff16021790555060a08201518160050160006101000a81548173ffffffffffffffffffffffffffffffffffffffff021916908373ffffffffffffffffffffffffffffffffffffffff1602179055505050600360008473ffffffffffffffffffffffffffffffffffffffff1673ffffffffffffffffffffffffffffffffffffffff1681526020019081526020016000206000815480929190610cc390611a7d565b9190505550600060018080549050610cdb9190611b51565b9050836002600083815260200190815260200160002060006101000a81548173ffffffffffffffffffffffffffffffffffffffff021916908373ffffffffffffffffffffffffffffffffffffffff160217905550600060018281548110610d4557610d44611a1f565b5b90600052602060002090600602019050818160030181905550819350505050949350505050565b60026020528060005260406000206000915054906101000a900473ffffffffffffffffffffffffffffffffffffffff1681565b610da761121a565b60018281548110610dbb57610dba611a1f565b5b90600052602060002090600602016040518060c0016040529081600082018054610de490611b1f565b80601f0160208091040260200160405190810160405280929190818152602001828054610e1090611b1f565b8015610e5d5780601f10610e3257610100808354040283529160200191610e5d565b820191906000526020600020905b815481529060010190602001808311610e4057829003601f168201915b50505050508152602001600182018054610e7690611b1f565b80601f0160208091040260200160405190810160405280929190818152602001828054610ea290611b1f565b8015610eef5780601f10610ec457610100808354040283529160200191610eef565b820191906000526020600020905b815481529060010190602001808311610ed257829003601f168201915b5050505050815260200160028201548152602001600382015481526020016004820160009054906101000a900473ffffffffffffffffffffffffffffffffffffffff1673ffffffffffffffffffffffffffffffffffffffff1673ffffffffffffffffffffffffffffffffffffffff1681526020016005820160009054906101000a900473ffffffffffffffffffffffffffffffffffffffff1673ffffffffffffffffffffffffffffffffffffffff1673ffffffffffffffffffffffffffffffffffffffff16815250509050919050565b60008060009054906101000a900473ffffffffffffffffffffffffffffffffffffffff16905090565b338260018181548110610ffe57610ffd611a1f565b5b906000526020600020906006020160050160009054906101000a900473ffffffffffffffffffffffffffffffffffffffff1673ffffffffffffffffffffffffffffffffffffffff163373ffffffffffffffffffffffffffffffffffffffff161461106757600080fd5b6110723384866110b5565b50505050565b60006002600083815260200190815260200160002060009054906101000a900473ffffffffffffffffffffffffffffffffffffffff169050919050565b816002600083815260200190815260200160002060006101000a81548173ffffffffffffffffffffffffffffffffffffffff021916908373ffffffffffffffffffffffffffffffffffffffff160217905550816001828154811061111c5761111b611a1f565b5b906000526020600020906006020160050160006101000a81548173ffffffffffffffffffffffffffffffffffffffff021916908373ffffffffffffffffffffffffffffffffffffffff160217905550600360008373ffffffffffffffffffffffffffffffffffffffff1673ffffffffffffffffffffffffffffffffffffffff16815260200190815260200160002060008154809291906111bb90611a7d565b9190505550600360008473ffffffffffffffffffffffffffffffffffffffff1673ffffffffffffffffffffffffffffffffffffffff168152602001908152602001600020600081548092919061121090611ac6565b9190505550505050565b6040518060c0016040528060608152602001606081526020016000815260200160008152602001600073ffffffffffffffffffffffffffffffffffffffff168152602001600073ffffffffffffffffffffffffffffffffffffffff1681525090565b82805461128890611b1f565b90600052602060002090601f0160209004810192826112aa57600085556112f1565b82601f106112c357805160ff19168380011785556112f1565b828001600101855582156112f1579182015b828111156112f05782518255916020019190600101906112d5565b5b5090506112fe9190611302565b5090565b5b8082111561131b576000816000905550600101611303565b5090565b6000604051905090565b600080fd5b600080fd5b6000819050919050565b61134681611333565b811461135157600080fd5b50565b6000813590506113638161133d565b92915050565b600073ffffffffffffffffffffffffffffffffffffffff82169050919050565b600061139482611369565b9050919050565b6113a481611389565b81146113af57600080fd5b50565b6000813590506113c18161139b565b92915050565b600080604083850312156113de576113dd611329565b5b60006113ec85828601611354565b92505060206113fd858286016113b2565b9150509250929050565b60006020828403121561141d5761141c611329565b5b600061142b848285016113b2565b91505092915050565b600081519050919050565b600082825260208201905092915050565b6000819050602082019050919050565b600081519050919050565b600082825260208201905092915050565b60005b8381101561149a57808201518184015260208101905061147f565b838111156114a9576000848401525b50505050565b6000601f19601f8301169050919050565b60006114cb82611460565b6114d5818561146b565b93506114e581856020860161147c565b6114ee816114af565b840191505092915050565b61150281611333565b82525050565b61151181611389565b82525050565b600060c083016000830151848203600086015261153482826114c0565b9150506020830151848203602086015261154e82826114c0565b915050604083015161156360408601826114f9565b50606083015161157660608601826114f9565b5060808301516115896080860182611508565b5060a083015161159c60a0860182611508565b508091505092915050565b60006115b38383611517565b905092915050565b6000602082019050919050565b60006115d382611434565b6115dd818561143f565b9350836020820285016115ef85611450565b8060005b8581101561162b578484038952815161160c85826115a7565b9450611617836115bb565b925060208a019950506001810190506115f3565b50829750879550505050505092915050565b6000602082019050818103600083015261165781846115c8565b905092915050565b61166881611333565b82525050565b6000602082019050611683600083018461165f565b92915050565b60006020828403121561169f5761169e611329565b5b60006116ad84828501611354565b91505092915050565b600082825260208201905092915050565b60006116d282611460565b6116dc81856116b6565b93506116ec81856020860161147c565b6116f5816114af565b840191505092915050565b61170981611389565b82525050565b600060c082019050818103600083015261172981896116c7565b9050818103602083015261173d81886116c7565b905061174c604083018761165f565b611759606083018661165f565b6117666080830185611700565b61177360a0830184611700565b979650505050505050565b600080fd5b600080fd5b7f4e487b7100000000000000000000000000000000000000000000000000000000600052604160045260246000fd5b6117c0826114af565b810181811067ffffffffffffffff821117156117df576117de611788565b5b80604052505050565b60006117f261131f565b90506117fe82826117b7565b919050565b600067ffffffffffffffff82111561181e5761181d611788565b5b611827826114af565b9050602081019050919050565b82818337600083830152505050565b600061185661185184611803565b6117e8565b90508281526020810184848401111561187257611871611783565b5b61187d848285611834565b509392505050565b600082601f83011261189a5761189961177e565b5b81356118aa848260208601611843565b91505092915050565b600080600080608085870312156118cd576118cc611329565b5b600085013567ffffffffffffffff8111156118eb576118ea61132e565b5b6118f787828801611885565b945050602085013567ffffffffffffffff8111156119185761191761132e565b5b61192487828801611885565b935050604061193587828801611354565b9250506060611946878288016113b2565b91505092959194509250565b60006020820190506119676000830184611700565b92915050565b600060c083016000830151848203600086015261198a82826114c0565b915050602083015184820360208601526119a482826114c0565b91505060408301516119b960408601826114f9565b5060608301516119cc60608601826114f9565b5060808301516119df6080860182611508565b5060a08301516119f260a0860182611508565b508091505092915050565b60006020820190508181036000830152611a17818461196d565b905092915050565b7f4e487b7100000000000000000000000000000000000000000000000000000000600052603260045260246000fd5b7f4e487b7100000000000000000000000000000000000000000000000000000000600052601160045260246000fd5b6000611a8882611333565b91507fffffffffffffffffffffffffffffffffffffffffffffffffffffffffffffffff821415611abb57611aba611a4e565b5b600182019050919050565b6000611ad182611333565b91506000821415611ae557611ae4611a4e565b5b600182039050919050565b7f4e487b7100000000000000000000000000000000000000000000000000000000600052602260045260246000fd5b60006002820490506001821680611b3757607f821691505b60208210811415611b4b57611b4a611af0565b5b50919050565b6000611b5c82611333565b9150611b6783611333565b925082821015611b7a57611b79611a4e565b5b82820390509291505056fea2646970667358221220385a643fd8b2fa18f8d1d6e38bf26e4ef002f07ff075ddcf8a220a0de72e100d64736f6c634300080a0033",
  "immutableReferences": {},
  "source": "pragma solidity >=0.4.16 <0.9.0;\n\nimport \"./veritas-helper.sol\";\n\ncontract Veritas is VeritasHelper {\n    constructor() {\n        ceo = msg.sender;\n    }\n\n    function createProduct(string memory _name, string memory description, uint sku, address _manufacturer) public isCEO(msg.sender) returns(uint) {\n        products.push(Product(_name, description, sku, sku, _manufacturer, _manufacturer));\n        productCount[_manufacturer]++;\n        uint _id = products.length - 1;\n        productOwners[_id] = _manufacturer;\n        Product storage _product = products[_id];\n        _product.id = uint(_id);\n        return _id;\n        // products.push(Product(_name, _manufacturer, address(0)));\n    }\n\n    function sellProduct(uint _id, address _owner) public isSaleAuthorized(msg.sender, _id) {\n    // function sellProduct(uint _id, address _owner) public {\n        // _transferProduct(msg.sender, _owner, _id);\n        // createProduct(\"Tester\", \"adsfd\", 235, _owner);\n        productOwners[_id] = _owner;\n        products[_id].owner = _owner;\n        productCount[_owner]++;\n        productCount[msg.sender]--;\n    }\n\n    function transferProduct(uint _id, address _newOwner) public isOwner(msg.sender, _id) {\n        _transferProduct(msg.sender, _newOwner, _id);\n    }\n\n    function getAllProducts(address _owner) external view returns(Product[] memory) {\n        Product[] memory result = new Product[](productCount[_owner]);\n        uint counter = 0;\n        for (uint i = 0; i < products.length; i++) {\n            if (products[i].owner == _owner) {\n                result[counter] = products[i];\n                counter++;\n            }\n        }\n        return result;\n    }\n}",
  "sourcePath": "/Users/rounaksalim/Documents/git/sjsu/Fall-2021/CMPE-272/Veritas/contracts/veritas.sol",
  "compiler": {
    "name": "solc",
    "version": "0.8.10+commit.fc410830.Emscripten.clang"
  },
  "schemaVersion": "3.4.3",
  "updatedAt": "2021-11-30T19:23:21.311Z",
  "networkType": "ethereum",
  "devdoc": {
    "kind": "dev",
    "methods": {},
    "version": 1
  },
  "userdoc": {
    "kind": "user",
    "methods": {},
    "version": 1
  }
}