{
  "contractName": "VeritasHelper",
  "abi": [
    {
      "inputs": [
        {
          "internalType": "address",
          "name": "",
          "type": "address"
        }
      ],
      "name": "productCount",
      "outputs": [
        {
          "internalType": "uint256",
          "name": "",
          "type": "uint256"
        }
      ],
      "stateMutability": "view",
      "type": "function"
    },
    {
      "inputs": [
        {
          "internalType": "uint256",
          "name": "",
          "type": "uint256"
        }
      ],
      "name": "productOwners",
      "outputs": [
        {
          "internalType": "address",
          "name": "",
          "type": "address"
        }
      ],
      "stateMutability": "view",
      "type": "function"
    },
    {
      "inputs": [
        {
          "internalType": "uint256",
          "name": "",
          "type": "uint256"
        }
      ],
      "name": "products",
      "outputs": [
        {
          "internalType": "string",
          "name": "name",
          "type": "string"
        },
        {
          "internalType": "string",
          "name": "description",
          "type": "string"
        },
        {
          "internalType": "uint256",
          "name": "sku",
          "type": "uint256"
        },
        {
          "internalType": "uint256",
          "name": "id",
          "type": "uint256"
        },
        {
          "internalType": "address",
          "name": "manufacturer",
          "type": "address"
        },
        {
          "internalType": "address",
          "name": "owner",
          "type": "address"
        }
      ],
      "stateMutability": "view",
      "type": "function"
    },
    {
      "inputs": [],
      "name": "getCEO",
      "outputs": [
        {
          "internalType": "address",
          "name": "",
          "type": "address"
        }
      ],
      "stateMutability": "view",
      "type": "function"
    },
    {
      "inputs": [
        {
          "internalType": "uint256",
          "name": "_id",
          "type": "uint256"
        }
      ],
      "name": "getProductOwner",
      "outputs": [
        {
          "internalType": "address",
          "name": "",
          "type": "address"
        }
      ],
      "stateMutability": "view",
      "type": "function"
    },
    {
      "inputs": [],
      "name": "getProductCount",
      "outputs": [
        {
          "internalType": "uint256",
          "name": "",
          "type": "uint256"
        }
      ],
      "stateMutability": "view",
      "type": "function"
    },
    {
      "inputs": [
        {
          "internalType": "address",
          "name": "_owner",
          "type": "address"
        }
      ],
      "name": "getProductCount",
      "outputs": [
        {
          "internalType": "uint256",
          "name": "",
          "type": "uint256"
        }
      ],
      "stateMutability": "view",
      "type": "function"
    },
    {
      "inputs": [
        {
          "internalType": "uint256",
          "name": "_id",
          "type": "uint256"
        }
      ],
      "name": "getProduct",
      "outputs": [
        {
          "components": [
            {
              "internalType": "string",
              "name": "name",
              "type": "string"
            },
            {
              "internalType": "string",
              "name": "description",
              "type": "string"
            },
            {
              "internalType": "uint256",
              "name": "sku",
              "type": "uint256"
            },
            {
              "internalType": "uint256",
              "name": "id",
              "type": "uint256"
            },
            {
              "internalType": "address",
              "name": "manufacturer",
              "type": "address"
            },
            {
              "internalType": "address",
              "name": "owner",
              "type": "address"
            }
          ],
          "internalType": "struct VeritasHelper.Product",
          "name": "",
          "type": "tuple"
        }
      ],
      "stateMutability": "view",
      "type": "function"
    }
  ],
  "bytecode": "0x608060405234801561001057600080fd5b50610b7c806100206000396000f3fe608060405234801561001057600080fd5b50600436106100885760003560e01c8063ad95a8a21161005b578063ad95a8a214610140578063b9db15b414610170578063c8b0e68d146101a0578063fe542c9b146101be57610088565b806315424f011461008d5780634a348da9146100bd57806350208eee146100db5780637acc0b201461010b575b600080fd5b6100a760048036038101906100a291906107b0565b6101ee565b6040516100b491906107f6565b60405180910390f35b6100c5610206565b6040516100d291906107f6565b60405180910390f35b6100f560048036038101906100f091906107b0565b61024d565b60405161010291906107f6565b60405180910390f35b6101256004803603810190610120919061083d565b610296565b60405161013796959493929190610912565b60405180910390f35b61015a6004803603810190610155919061083d565b610432565b6040516101679190610981565b60405180910390f35b61018a6004803603810190610185919061083d565b610465565b6040516101979190610a94565b60405180910390f35b6101a8610685565b6040516101b59190610981565b60405180910390f35b6101d860048036038101906101d3919061083d565b6106ae565b6040516101e59190610981565b60405180910390f35b60036020528060005260406000206000915090505481565b6000600360003373ffffffffffffffffffffffffffffffffffffffff1673ffffffffffffffffffffffffffffffffffffffff16815260200190815260200160002054905090565b6000600360008373ffffffffffffffffffffffffffffffffffffffff1673ffffffffffffffffffffffffffffffffffffffff168152602001908152602001600020549050919050565b600181815481106102a657600080fd5b90600052602060002090600602016000915090508060000180546102c990610ae5565b80601f01602080910402602001604051908101604052809291908181526020018280546102f590610ae5565b80156103425780601f1061031757610100808354040283529160200191610342565b820191906000526020600020905b81548152906001019060200180831161032557829003601f168201915b50505050509080600101805461035790610ae5565b80601f016020809104026020016040519081016040528092919081815260200182805461038390610ae5565b80156103d05780601f106103a5576101008083540402835291602001916103d0565b820191906000526020600020905b8154815290600101906020018083116103b357829003601f168201915b5050505050908060020154908060030154908060040160009054906101000a900473ffffffffffffffffffffffffffffffffffffffff16908060050160009054906101000a900473ffffffffffffffffffffffffffffffffffffffff16905086565b60026020528060005260406000206000915054906101000a900473ffffffffffffffffffffffffffffffffffffffff1681565b61046d6106eb565b6001828154811061048157610480610b17565b5b90600052602060002090600602016040518060c00160405290816000820180546104aa90610ae5565b80601f01602080910402602001604051908101604052809291908181526020018280546104d690610ae5565b80156105235780601f106104f857610100808354040283529160200191610523565b820191906000526020600020905b81548152906001019060200180831161050657829003601f168201915b5050505050815260200160018201805461053c90610ae5565b80601f016020809104026020016040519081016040528092919081815260200182805461056890610ae5565b80156105b55780601f1061058a576101008083540402835291602001916105b5565b820191906000526020600020905b81548152906001019060200180831161059857829003601f168201915b5050505050815260200160028201548152602001600382015481526020016004820160009054906101000a900473ffffffffffffffffffffffffffffffffffffffff1673ffffffffffffffffffffffffffffffffffffffff1673ffffffffffffffffffffffffffffffffffffffff1681526020016005820160009054906101000a900473ffffffffffffffffffffffffffffffffffffffff1673ffffffffffffffffffffffffffffffffffffffff1673ffffffffffffffffffffffffffffffffffffffff16815250509050919050565b60008060009054906101000a900473ffffffffffffffffffffffffffffffffffffffff16905090565b60006002600083815260200190815260200160002060009054906101000a900473ffffffffffffffffffffffffffffffffffffffff169050919050565b6040518060c0016040528060608152602001606081526020016000815260200160008152602001600073ffffffffffffffffffffffffffffffffffffffff168152602001600073ffffffffffffffffffffffffffffffffffffffff1681525090565b600080fd5b600073ffffffffffffffffffffffffffffffffffffffff82169050919050565b600061077d82610752565b9050919050565b61078d81610772565b811461079857600080fd5b50565b6000813590506107aa81610784565b92915050565b6000602082840312156107c6576107c561074d565b5b60006107d48482850161079b565b91505092915050565b6000819050919050565b6107f0816107dd565b82525050565b600060208201905061080b60008301846107e7565b92915050565b61081a816107dd565b811461082557600080fd5b50565b60008135905061083781610811565b92915050565b6000602082840312156108535761085261074d565b5b600061086184828501610828565b91505092915050565b600081519050919050565b600082825260208201905092915050565b60005b838110156108a4578082015181840152602081019050610889565b838111156108b3576000848401525b50505050565b6000601f19601f8301169050919050565b60006108d58261086a565b6108df8185610875565b93506108ef818560208601610886565b6108f8816108b9565b840191505092915050565b61090c81610772565b82525050565b600060c082019050818103600083015261092c81896108ca565b9050818103602083015261094081886108ca565b905061094f60408301876107e7565b61095c60608301866107e7565b6109696080830185610903565b61097660a0830184610903565b979650505050505050565b60006020820190506109966000830184610903565b92915050565b600082825260208201905092915050565b60006109b88261086a565b6109c2818561099c565b93506109d2818560208601610886565b6109db816108b9565b840191505092915050565b6109ef816107dd565b82525050565b6109fe81610772565b82525050565b600060c0830160008301518482036000860152610a2182826109ad565b91505060208301518482036020860152610a3b82826109ad565b9150506040830151610a5060408601826109e6565b506060830151610a6360608601826109e6565b506080830151610a7660808601826109f5565b5060a0830151610a8960a08601826109f5565b508091505092915050565b60006020820190508181036000830152610aae8184610a04565b905092915050565b7f4e487b7100000000000000000000000000000000000000000000000000000000600052602260045260246000fd5b60006002820490506001821680610afd57607f821691505b60208210811415610b1157610b10610ab6565b5b50919050565b7f4e487b7100000000000000000000000000000000000000000000000000000000600052603260045260246000fdfea2646970667358221220083a71af3c83612339b0240557d4d8058098d754024f67d5a1a125fdaa22e0b264736f6c634300080a0033",
  "immutableReferences": {},
  "source": "pragma solidity >=0.4.16 <0.9.0;\n\ncontract VeritasHelper {\n    address ceo;\n\n    struct Product {\n        string name;\n        string description;\n        uint sku;\n        uint id;\n        address manufacturer;\n        address owner;\n    }\n\n    Product[] public products;\n\n    mapping (uint => address) public productOwners;\n    mapping (address => uint) public productCount;\n\n    modifier isCEO(address _address) {\n        require(msg.sender == ceo);\n        _;\n    }\n\n    modifier isSaleAuthorized(address _address, uint256 _id) {\n        address owner = products[_id].owner;\n        require(_address == ceo || _address == owner);\n        _;\n    }\n\n    modifier isOwner(address _address, uint256 _id) {\n        require(msg.sender == products[_id].owner);\n        _;\n    }\n\n    function _transferProduct(address _from, address _to, uint256 _id) internal {\n        productOwners[_id] = _to;\n        products[_id].owner = _to;\n        productCount[_to]++;\n        productCount[_from]--;\n    }\n\n    function getCEO() external view returns(address) {\n        return ceo;\n    }\n\n    function getProductOwner(uint _id) external view returns(address) {\n        return productOwners[_id];\n    }\n\n    function getProductCount(address _owner) external view returns(uint) {\n        return productCount[_owner];\n    }\n\n    function getProductCount() external view returns(uint) {\n        return productCount[msg.sender];\n    }\n\n    function getProduct(uint _id) external view returns(Product memory) {\n        return products[_id];\n    }\n}\n",
  "sourcePath": "/Users/rounaksalim/Documents/git/sjsu/Fall-2021/CMPE-272/Veritas/contracts/veritas-helper.sol",
  "compiler": {
    "name": "solc",
    "version": "0.8.10+commit.fc410830.Emscripten.clang"
  },
  "schemaVersion": "3.4.3",
  "updatedAt": "2021-11-30T19:23:17.682Z",
  "devdoc": {
    "kind": "dev",
    "methods": {},
    "version": 1
  },
  "userdoc": {
    "kind": "user",
    "methods": {},
    "version": 1
  }
}