{
  "contractName": "Veritas",
  "abi": [
    {
      "inputs": [],
      "stateMutability": "nonpayable",
      "type": "constructor"
    },
    {
      "inputs": [
        {
          "internalType": "uint256",
          "name": "",
          "type": "uint256"
        }
      ],
      "name": "productOwners",
      "outputs": [
        {
          "internalType": "address",
          "name": "",
          "type": "address"
        }
      ],
      "stateMutability": "view",
      "type": "function",
      "constant": true
    },
    {
      "inputs": [
        {
          "internalType": "uint256",
          "name": "",
          "type": "uint256"
        }
      ],
      "name": "products",
      "outputs": [
        {
          "internalType": "string",
          "name": "name",
          "type": "string"
        },
        {
          "internalType": "address",
          "name": "manufacturer",
          "type": "address"
        },
        {
          "internalType": "address",
          "name": "owner",
          "type": "address"
        }
      ],
      "stateMutability": "view",
      "type": "function",
      "constant": true
    },
    {
      "inputs": [
        {
          "internalType": "string",
          "name": "_name",
          "type": "string"
        },
        {
          "internalType": "address",
          "name": "_manufacturer",
          "type": "address"
        }
      ],
      "name": "createProduct",
      "outputs": [
        {
          "internalType": "uint256",
          "name": "",
          "type": "uint256"
        }
      ],
      "stateMutability": "nonpayable",
      "type": "function"
    },
    {
      "inputs": [
        {
          "internalType": "uint256",
          "name": "_id",
          "type": "uint256"
        },
        {
          "internalType": "address",
          "name": "_owner",
          "type": "address"
        }
      ],
      "name": "sellProduct",
      "outputs": [],
      "stateMutability": "nonpayable",
      "type": "function"
    }
  ],
  "bytecode": "0x608060405234801561001057600080fd5b50336000806101000a81548173ffffffffffffffffffffffffffffffffffffffff021916908373ffffffffffffffffffffffffffffffffffffffff160217905550610afc806100606000396000f3fe608060405234801561001057600080fd5b506004361061004c5760003560e01c80630b5691401461005157806365b3d5bf1461006d5780637acc0b201461009d578063ad95a8a2146100cf575b600080fd5b61006b600480360381019061006691906106aa565b6100ff565b005b61008760048036038101906100829190610830565b610296565b604051610094919061089b565b60405180910390f35b6100b760048036038101906100b291906108b6565b61042a565b6040516100c69392919061097a565b60405180910390f35b6100e960048036038101906100e491906108b6565b61052c565b6040516100f691906109b8565b60405180910390f35b3382600060018281548110610117576101166109d3565b5b906000526020600020906003020160020160009054906101000a900473ffffffffffffffffffffffffffffffffffffffff16905060008054906101000a900473ffffffffffffffffffffffffffffffffffffffff1673ffffffffffffffffffffffffffffffffffffffff163373ffffffffffffffffffffffffffffffffffffffff1614806101d057508073ffffffffffffffffffffffffffffffffffffffff163373ffffffffffffffffffffffffffffffffffffffff16145b6101d957600080fd5b836002600087815260200190815260200160002060006101000a81548173ffffffffffffffffffffffffffffffffffffffff021916908373ffffffffffffffffffffffffffffffffffffffff16021790555083600186815481106102405761023f6109d3565b5b906000526020600020906003020160020160006101000a81548173ffffffffffffffffffffffffffffffffffffffff021916908373ffffffffffffffffffffffffffffffffffffffff1602179055505050505050565b60003360008054906101000a900473ffffffffffffffffffffffffffffffffffffffff1673ffffffffffffffffffffffffffffffffffffffff163373ffffffffffffffffffffffffffffffffffffffff16146102f157600080fd5b600160405180606001604052808681526020018573ffffffffffffffffffffffffffffffffffffffff1681526020018573ffffffffffffffffffffffffffffffffffffffff168152509080600181540180825580915050600190039060005260206000209060030201600090919091909150600082015181600001908051906020019061037f92919061055f565b5060208201518160010160006101000a81548173ffffffffffffffffffffffffffffffffffffffff021916908373ffffffffffffffffffffffffffffffffffffffff16021790555060408201518160020160006101000a81548173ffffffffffffffffffffffffffffffffffffffff021916908373ffffffffffffffffffffffffffffffffffffffff1602179055505050600180805490506104219190610a31565b91505092915050565b6001818154811061043a57600080fd5b906000526020600020906003020160009150905080600001805461045d90610a94565b80601f016020809104026020016040519081016040528092919081815260200182805461048990610a94565b80156104d65780601f106104ab576101008083540402835291602001916104d6565b820191906000526020600020905b8154815290600101906020018083116104b957829003601f168201915b5050505050908060010160009054906101000a900473ffffffffffffffffffffffffffffffffffffffff16908060020160009054906101000a900473ffffffffffffffffffffffffffffffffffffffff16905083565b60026020528060005260406000206000915054906101000a900473ffffffffffffffffffffffffffffffffffffffff1681565b82805461056b90610a94565b90600052602060002090601f01602090048101928261058d57600085556105d4565b82601f106105a657805160ff19168380011785556105d4565b828001600101855582156105d4579182015b828111156105d35782518255916020019190600101906105b8565b5b5090506105e191906105e5565b5090565b5b808211156105fe5760008160009055506001016105e6565b5090565b6000604051905090565b600080fd5b600080fd5b6000819050919050565b61062981610616565b811461063457600080fd5b50565b60008135905061064681610620565b92915050565b600073ffffffffffffffffffffffffffffffffffffffff82169050919050565b60006106778261064c565b9050919050565b6106878161066c565b811461069257600080fd5b50565b6000813590506106a48161067e565b92915050565b600080604083850312156106c1576106c061060c565b5b60006106cf85828601610637565b92505060206106e085828601610695565b9150509250929050565b600080fd5b600080fd5b6000601f19601f8301169050919050565b7f4e487b7100000000000000000000000000000000000000000000000000000000600052604160045260246000fd5b61073d826106f4565b810181811067ffffffffffffffff8211171561075c5761075b610705565b5b80604052505050565b600061076f610602565b905061077b8282610734565b919050565b600067ffffffffffffffff82111561079b5761079a610705565b5b6107a4826106f4565b9050602081019050919050565b82818337600083830152505050565b60006107d36107ce84610780565b610765565b9050828152602081018484840111156107ef576107ee6106ef565b5b6107fa8482856107b1565b509392505050565b600082601f830112610817576108166106ea565b5b81356108278482602086016107c0565b91505092915050565b600080604083850312156108475761084661060c565b5b600083013567ffffffffffffffff81111561086557610864610611565b5b61087185828601610802565b925050602061088285828601610695565b9150509250929050565b61089581610616565b82525050565b60006020820190506108b0600083018461088c565b92915050565b6000602082840312156108cc576108cb61060c565b5b60006108da84828501610637565b91505092915050565b600081519050919050565b600082825260208201905092915050565b60005b8381101561091d578082015181840152602081019050610902565b8381111561092c576000848401525b50505050565b600061093d826108e3565b61094781856108ee565b93506109578185602086016108ff565b610960816106f4565b840191505092915050565b6109748161066c565b82525050565b600060608201905081810360008301526109948186610932565b90506109a3602083018561096b565b6109b0604083018461096b565b949350505050565b60006020820190506109cd600083018461096b565b92915050565b7f4e487b7100000000000000000000000000000000000000000000000000000000600052603260045260246000fd5b7f4e487b7100000000000000000000000000000000000000000000000000000000600052601160045260246000fd5b6000610a3c82610616565b9150610a4783610616565b925082821015610a5a57610a59610a02565b5b828203905092915050565b7f4e487b7100000000000000000000000000000000000000000000000000000000600052602260045260246000fd5b60006002820490506001821680610aac57607f821691505b60208210811415610ac057610abf610a65565b5b5091905056fea2646970667358221220c65d5044d236a039953aed26a09514b39d7c871b835071c57045c8f01faef54764736f6c634300080a0033",
  "immutableReferences": {},
  "source": "pragma solidity >=0.4.16 <0.9.0;\n\nimport \"./veritas-helper.sol\";\n\ncontract Veritas is VeritasHelper {\n\n    mapping (uint => address) public productOwners;\n\n    constructor() {\n        ceo = msg.sender;\n    }\n\n    function createProduct(string memory _name, address _manufacturer) public isCEO(msg.sender) returns(uint) {\n        products.push(Product(_name, _manufacturer, _manufacturer));\n        return products.length - 1;\n        // products.push(Product(_name, _manufacturer, address(0)));\n    }\n\n    function sellProduct(uint _id, address _owner) public isSaleAuthorized(msg.sender, _id) {\n        productOwners[_id] = _owner;\n        products[_id].owner = _owner;\n    }\n\n}",
  "sourcePath": "/Users/rounaksalim/Documents/git/sjsu/Fall-2021/CMPE-272/Veritas/contracts/veritas.sol",
  "compiler": {
    "name": "solc",
    "version": "0.8.10+commit.fc410830.Emscripten.clang"
  },
  "schemaVersion": "3.4.3",
  "updatedAt": "2021-11-29T04:29:14.970Z",
  "networkType": "ethereum",
  "devdoc": {
    "kind": "dev",
    "methods": {},
    "version": 1
  },
  "userdoc": {
    "kind": "user",
    "methods": {},
    "version": 1
  }
}