{
  "contractName": "Veritas",
  "abi": [
    {
      "inputs": [],
      "stateMutability": "nonpayable",
      "type": "constructor"
    },
    {
      "inputs": [],
      "name": "getCEO",
      "outputs": [
        {
          "internalType": "address",
          "name": "",
          "type": "address"
        }
      ],
      "stateMutability": "view",
      "type": "function",
      "constant": true
    },
    {
      "inputs": [
        {
          "internalType": "uint256",
          "name": "_id",
          "type": "uint256"
        }
      ],
      "name": "getProduct",
      "outputs": [
        {
          "components": [
            {
              "internalType": "string",
              "name": "name",
              "type": "string"
            },
            {
              "internalType": "string",
              "name": "description",
              "type": "string"
            },
            {
              "internalType": "uint256",
              "name": "sku",
              "type": "uint256"
            },
            {
              "internalType": "uint256",
              "name": "id",
              "type": "uint256"
            },
            {
              "internalType": "address",
              "name": "manufacturer",
              "type": "address"
            },
            {
              "internalType": "address",
              "name": "owner",
              "type": "address"
            }
          ],
          "internalType": "struct VeritasHelper.Product",
          "name": "",
          "type": "tuple"
        }
      ],
      "stateMutability": "view",
      "type": "function",
      "constant": true
    },
    {
      "inputs": [],
      "name": "getProductCount",
      "outputs": [
        {
          "internalType": "uint256",
          "name": "",
          "type": "uint256"
        }
      ],
      "stateMutability": "view",
      "type": "function",
      "constant": true
    },
    {
      "inputs": [
        {
          "internalType": "address",
          "name": "_owner",
          "type": "address"
        }
      ],
      "name": "getProductCount",
      "outputs": [
        {
          "internalType": "uint256",
          "name": "",
          "type": "uint256"
        }
      ],
      "stateMutability": "view",
      "type": "function",
      "constant": true
    },
    {
      "inputs": [
        {
          "internalType": "uint256",
          "name": "_id",
          "type": "uint256"
        }
      ],
      "name": "getProductOwner",
      "outputs": [
        {
          "internalType": "address",
          "name": "",
          "type": "address"
        }
      ],
      "stateMutability": "view",
      "type": "function",
      "constant": true
    },
    {
      "inputs": [
        {
          "internalType": "address",
          "name": "",
          "type": "address"
        }
      ],
      "name": "productCount",
      "outputs": [
        {
          "internalType": "uint256",
          "name": "",
          "type": "uint256"
        }
      ],
      "stateMutability": "view",
      "type": "function",
      "constant": true
    },
    {
      "inputs": [
        {
          "internalType": "uint256",
          "name": "",
          "type": "uint256"
        }
      ],
      "name": "productOwners",
      "outputs": [
        {
          "internalType": "address",
          "name": "",
          "type": "address"
        }
      ],
      "stateMutability": "view",
      "type": "function",
      "constant": true
    },
    {
      "inputs": [
        {
          "internalType": "uint256",
          "name": "",
          "type": "uint256"
        }
      ],
      "name": "products",
      "outputs": [
        {
          "internalType": "string",
          "name": "name",
          "type": "string"
        },
        {
          "internalType": "string",
          "name": "description",
          "type": "string"
        },
        {
          "internalType": "uint256",
          "name": "sku",
          "type": "uint256"
        },
        {
          "internalType": "uint256",
          "name": "id",
          "type": "uint256"
        },
        {
          "internalType": "address",
          "name": "manufacturer",
          "type": "address"
        },
        {
          "internalType": "address",
          "name": "owner",
          "type": "address"
        }
      ],
      "stateMutability": "view",
      "type": "function",
      "constant": true
    },
    {
      "inputs": [
        {
          "internalType": "string",
          "name": "_name",
          "type": "string"
        },
        {
          "internalType": "string",
          "name": "description",
          "type": "string"
        },
        {
          "internalType": "uint256",
          "name": "sku",
          "type": "uint256"
        },
        {
          "internalType": "address",
          "name": "_manufacturer",
          "type": "address"
        }
      ],
      "name": "createProduct",
      "outputs": [
        {
          "internalType": "uint256",
          "name": "",
          "type": "uint256"
        }
      ],
      "stateMutability": "nonpayable",
      "type": "function"
    },
    {
      "inputs": [
        {
          "internalType": "uint256",
          "name": "_id",
          "type": "uint256"
        },
        {
          "internalType": "address",
          "name": "_owner",
          "type": "address"
        }
      ],
      "name": "sellProduct",
      "outputs": [],
      "stateMutability": "nonpayable",
      "type": "function"
    },
    {
      "inputs": [
        {
          "internalType": "uint256",
          "name": "_id",
          "type": "uint256"
        },
        {
          "internalType": "address",
          "name": "_newOwner",
          "type": "address"
        }
      ],
      "name": "transferProduct",
      "outputs": [],
      "stateMutability": "nonpayable",
      "type": "function"
    },
    {
      "inputs": [
        {
          "internalType": "address",
          "name": "_owner",
          "type": "address"
        }
      ],
      "name": "getAllProducts",
      "outputs": [
        {
          "components": [
            {
              "internalType": "string",
              "name": "name",
              "type": "string"
            },
            {
              "internalType": "string",
              "name": "description",
              "type": "string"
            },
            {
              "internalType": "uint256",
              "name": "sku",
              "type": "uint256"
            },
            {
              "internalType": "uint256",
              "name": "id",
              "type": "uint256"
            },
            {
              "internalType": "address",
              "name": "manufacturer",
              "type": "address"
            },
            {
              "internalType": "address",
              "name": "owner",
              "type": "address"
            }
          ],
          "internalType": "struct VeritasHelper.Product[]",
          "name": "",
          "type": "tuple[]"
        }
      ],
      "stateMutability": "view",
      "type": "function",
      "constant": true
    }
  ],
  "bytecode": "0x608060405234801561001057600080fd5b50336000806101000a81548173ffffffffffffffffffffffffffffffffffffffff021916908373ffffffffffffffffffffffffffffffffffffffff160217905550611a0c806100606000396000f3fe608060405234801561001057600080fd5b50600436106100b45760003560e01c8063ab66859811610071578063ab668598146101b8578063ad95a8a2146101e8578063b9db15b414610218578063c8b0e68d14610248578063e43059e514610266578063fe542c9b14610282576100b4565b80630b569140146100b95780630bfd6aad146100d557806315424f01146101055780634a348da91461013557806350208eee146101535780637acc0b2014610183575b600080fd5b6100d360048036038101906100ce9190611218565b6102b2565b005b6100ef60048036038101906100ea9190611258565b61039e565b6040516100fc919061148e565b60405180910390f35b61011f600480360381019061011a9190611258565b61071d565b60405161012c91906114bf565b60405180910390f35b61013d610735565b60405161014a91906114bf565b60405180910390f35b61016d60048036038101906101689190611258565b61077c565b60405161017a91906114bf565b60405180910390f35b61019d600480360381019061019891906114da565b6107c5565b6040516101af96959493929190611560565b60405180910390f35b6101d260048036038101906101cd9190611704565b610961565b6040516101df91906114bf565b60405180910390f35b61020260048036038101906101fd91906114da565b610bbd565b60405161020f91906117a3565b60405180910390f35b610232600480360381019061022d91906114da565b610bf0565b60405161023f919061184e565b60405180910390f35b610250610e10565b60405161025d91906117a3565b60405180910390f35b610280600480360381019061027b9190611218565b610e39565b005b61029c600480360381019061029791906114da565b610ec9565b6040516102a991906117a3565b60405180910390f35b33826000600182815481106102ca576102c9611870565b5b906000526020600020906006020160050160009054906101000a900473ffffffffffffffffffffffffffffffffffffffff16905060008054906101000a900473ffffffffffffffffffffffffffffffffffffffff1673ffffffffffffffffffffffffffffffffffffffff168373ffffffffffffffffffffffffffffffffffffffff16148061038357508073ffffffffffffffffffffffffffffffffffffffff168373ffffffffffffffffffffffffffffffffffffffff16145b61038c57600080fd5b610397338587610f06565b5050505050565b60606000600360008473ffffffffffffffffffffffffffffffffffffffff1673ffffffffffffffffffffffffffffffffffffffff1681526020019081526020016000205467ffffffffffffffff8111156103fb576103fa6115d9565b5b60405190808252806020026020018201604052801561043457816020015b61042161106b565b8152602001906001900390816104195790505b5090506000805b600180549050811015610712578473ffffffffffffffffffffffffffffffffffffffff166001828154811061047357610472611870565b5b906000526020600020906006020160050160009054906101000a900473ffffffffffffffffffffffffffffffffffffffff1673ffffffffffffffffffffffffffffffffffffffff1614156106ff57600181815481106104d5576104d4611870565b5b90600052602060002090600602016040518060c00160405290816000820180546104fe906118ce565b80601f016020809104026020016040519081016040528092919081815260200182805461052a906118ce565b80156105775780601f1061054c57610100808354040283529160200191610577565b820191906000526020600020905b81548152906001019060200180831161055a57829003601f168201915b50505050508152602001600182018054610590906118ce565b80601f01602080910402602001604051908101604052809291908181526020018280546105bc906118ce565b80156106095780601f106105de57610100808354040283529160200191610609565b820191906000526020600020905b8154815290600101906020018083116105ec57829003601f168201915b5050505050815260200160028201548152602001600382015481526020016004820160009054906101000a900473ffffffffffffffffffffffffffffffffffffffff1673ffffffffffffffffffffffffffffffffffffffff1673ffffffffffffffffffffffffffffffffffffffff1681526020016005820160009054906101000a900473ffffffffffffffffffffffffffffffffffffffff1673ffffffffffffffffffffffffffffffffffffffff1673ffffffffffffffffffffffffffffffffffffffff16815250508383815181106106e5576106e4611870565b5b602002602001018190525081806106fb9061192f565b9250505b808061070a9061192f565b91505061043b565b508192505050919050565b60036020528060005260406000206000915090505481565b6000600360003373ffffffffffffffffffffffffffffffffffffffff1673ffffffffffffffffffffffffffffffffffffffff16815260200190815260200160002054905090565b6000600360008373ffffffffffffffffffffffffffffffffffffffff1673ffffffffffffffffffffffffffffffffffffffff168152602001908152602001600020549050919050565b600181815481106107d557600080fd5b90600052602060002090600602016000915090508060000180546107f8906118ce565b80601f0160208091040260200160405190810160405280929190818152602001828054610824906118ce565b80156108715780601f1061084657610100808354040283529160200191610871565b820191906000526020600020905b81548152906001019060200180831161085457829003601f168201915b505050505090806001018054610886906118ce565b80601f01602080910402602001604051908101604052809291908181526020018280546108b2906118ce565b80156108ff5780601f106108d4576101008083540402835291602001916108ff565b820191906000526020600020905b8154815290600101906020018083116108e257829003601f168201915b5050505050908060020154908060030154908060040160009054906101000a900473ffffffffffffffffffffffffffffffffffffffff16908060050160009054906101000a900473ffffffffffffffffffffffffffffffffffffffff16905086565b600060016040518060c001604052808781526020018681526020018581526020018581526020018473ffffffffffffffffffffffffffffffffffffffff1681526020018473ffffffffffffffffffffffffffffffffffffffff1681525090806001815401808255809150506001900390600052602060002090600602016000909190919091506000820151816000019080519060200190610a039291906110cd565b506020820151816001019080519060200190610a209291906110cd565b50604082015181600201556060820151816003015560808201518160040160006101000a81548173ffffffffffffffffffffffffffffffffffffffff021916908373ffffffffffffffffffffffffffffffffffffffff16021790555060a08201518160050160006101000a81548173ffffffffffffffffffffffffffffffffffffffff021916908373ffffffffffffffffffffffffffffffffffffffff1602179055505050600360008373ffffffffffffffffffffffffffffffffffffffff1673ffffffffffffffffffffffffffffffffffffffff1681526020019081526020016000206000815480929190610b159061192f565b9190505550600060018080549050610b2d9190611978565b9050826002600083815260200190815260200160002060006101000a81548173ffffffffffffffffffffffffffffffffffffffff021916908373ffffffffffffffffffffffffffffffffffffffff160217905550600060018281548110610b9757610b96611870565b5b906000526020600020906006020190508181600301819055508192505050949350505050565b60026020528060005260406000206000915054906101000a900473ffffffffffffffffffffffffffffffffffffffff1681565b610bf861106b565b60018281548110610c0c57610c0b611870565b5b90600052602060002090600602016040518060c0016040529081600082018054610c35906118ce565b80601f0160208091040260200160405190810160405280929190818152602001828054610c61906118ce565b8015610cae5780601f10610c8357610100808354040283529160200191610cae565b820191906000526020600020905b815481529060010190602001808311610c9157829003601f168201915b50505050508152602001600182018054610cc7906118ce565b80601f0160208091040260200160405190810160405280929190818152602001828054610cf3906118ce565b8015610d405780601f10610d1557610100808354040283529160200191610d40565b820191906000526020600020905b815481529060010190602001808311610d2357829003601f168201915b5050505050815260200160028201548152602001600382015481526020016004820160009054906101000a900473ffffffffffffffffffffffffffffffffffffffff1673ffffffffffffffffffffffffffffffffffffffff1673ffffffffffffffffffffffffffffffffffffffff1681526020016005820160009054906101000a900473ffffffffffffffffffffffffffffffffffffffff1673ffffffffffffffffffffffffffffffffffffffff1673ffffffffffffffffffffffffffffffffffffffff16815250509050919050565b60008060009054906101000a900473ffffffffffffffffffffffffffffffffffffffff16905090565b338260018181548110610e4f57610e4e611870565b5b906000526020600020906006020160050160009054906101000a900473ffffffffffffffffffffffffffffffffffffffff1673ffffffffffffffffffffffffffffffffffffffff163373ffffffffffffffffffffffffffffffffffffffff1614610eb857600080fd5b610ec3338486610f06565b50505050565b60006002600083815260200190815260200160002060009054906101000a900473ffffffffffffffffffffffffffffffffffffffff169050919050565b816002600083815260200190815260200160002060006101000a81548173ffffffffffffffffffffffffffffffffffffffff021916908373ffffffffffffffffffffffffffffffffffffffff1602179055508160018281548110610f6d57610f6c611870565b5b906000526020600020906006020160050160006101000a81548173ffffffffffffffffffffffffffffffffffffffff021916908373ffffffffffffffffffffffffffffffffffffffff160217905550600360008373ffffffffffffffffffffffffffffffffffffffff1673ffffffffffffffffffffffffffffffffffffffff168152602001908152602001600020600081548092919061100c9061192f565b9190505550600360008473ffffffffffffffffffffffffffffffffffffffff1673ffffffffffffffffffffffffffffffffffffffff1681526020019081526020016000206000815480929190611061906119ac565b9190505550505050565b6040518060c0016040528060608152602001606081526020016000815260200160008152602001600073ffffffffffffffffffffffffffffffffffffffff168152602001600073ffffffffffffffffffffffffffffffffffffffff1681525090565b8280546110d9906118ce565b90600052602060002090601f0160209004810192826110fb5760008555611142565b82601f1061111457805160ff1916838001178555611142565b82800160010185558215611142579182015b82811115611141578251825591602001919060010190611126565b5b50905061114f9190611153565b5090565b5b8082111561116c576000816000905550600101611154565b5090565b6000604051905090565b600080fd5b600080fd5b6000819050919050565b61119781611184565b81146111a257600080fd5b50565b6000813590506111b48161118e565b92915050565b600073ffffffffffffffffffffffffffffffffffffffff82169050919050565b60006111e5826111ba565b9050919050565b6111f5816111da565b811461120057600080fd5b50565b600081359050611212816111ec565b92915050565b6000806040838503121561122f5761122e61117a565b5b600061123d858286016111a5565b925050602061124e85828601611203565b9150509250929050565b60006020828403121561126e5761126d61117a565b5b600061127c84828501611203565b91505092915050565b600081519050919050565b600082825260208201905092915050565b6000819050602082019050919050565b600081519050919050565b600082825260208201905092915050565b60005b838110156112eb5780820151818401526020810190506112d0565b838111156112fa576000848401525b50505050565b6000601f19601f8301169050919050565b600061131c826112b1565b61132681856112bc565b93506113368185602086016112cd565b61133f81611300565b840191505092915050565b61135381611184565b82525050565b611362816111da565b82525050565b600060c08301600083015184820360008601526113858282611311565b9150506020830151848203602086015261139f8282611311565b91505060408301516113b4604086018261134a565b5060608301516113c7606086018261134a565b5060808301516113da6080860182611359565b5060a08301516113ed60a0860182611359565b508091505092915050565b60006114048383611368565b905092915050565b6000602082019050919050565b600061142482611285565b61142e8185611290565b935083602082028501611440856112a1565b8060005b8581101561147c578484038952815161145d85826113f8565b94506114688361140c565b925060208a01995050600181019050611444565b50829750879550505050505092915050565b600060208201905081810360008301526114a88184611419565b905092915050565b6114b981611184565b82525050565b60006020820190506114d460008301846114b0565b92915050565b6000602082840312156114f0576114ef61117a565b5b60006114fe848285016111a5565b91505092915050565b600082825260208201905092915050565b6000611523826112b1565b61152d8185611507565b935061153d8185602086016112cd565b61154681611300565b840191505092915050565b61155a816111da565b82525050565b600060c082019050818103600083015261157a8189611518565b9050818103602083015261158e8188611518565b905061159d60408301876114b0565b6115aa60608301866114b0565b6115b76080830185611551565b6115c460a0830184611551565b979650505050505050565b600080fd5b600080fd5b7f4e487b7100000000000000000000000000000000000000000000000000000000600052604160045260246000fd5b61161182611300565b810181811067ffffffffffffffff821117156116305761162f6115d9565b5b80604052505050565b6000611643611170565b905061164f8282611608565b919050565b600067ffffffffffffffff82111561166f5761166e6115d9565b5b61167882611300565b9050602081019050919050565b82818337600083830152505050565b60006116a76116a284611654565b611639565b9050828152602081018484840111156116c3576116c26115d4565b5b6116ce848285611685565b509392505050565b600082601f8301126116eb576116ea6115cf565b5b81356116fb848260208601611694565b91505092915050565b6000806000806080858703121561171e5761171d61117a565b5b600085013567ffffffffffffffff81111561173c5761173b61117f565b5b611748878288016116d6565b945050602085013567ffffffffffffffff8111156117695761176861117f565b5b611775878288016116d6565b9350506040611786878288016111a5565b925050606061179787828801611203565b91505092959194509250565b60006020820190506117b86000830184611551565b92915050565b600060c08301600083015184820360008601526117db8282611311565b915050602083015184820360208601526117f58282611311565b915050604083015161180a604086018261134a565b50606083015161181d606086018261134a565b5060808301516118306080860182611359565b5060a083015161184360a0860182611359565b508091505092915050565b6000602082019050818103600083015261186881846117be565b905092915050565b7f4e487b7100000000000000000000000000000000000000000000000000000000600052603260045260246000fd5b7f4e487b7100000000000000000000000000000000000000000000000000000000600052602260045260246000fd5b600060028204905060018216806118e657607f821691505b602082108114156118fa576118f961189f565b5b50919050565b7f4e487b7100000000000000000000000000000000000000000000000000000000600052601160045260246000fd5b600061193a82611184565b91507fffffffffffffffffffffffffffffffffffffffffffffffffffffffffffffffff82141561196d5761196c611900565b5b600182019050919050565b600061198382611184565b915061198e83611184565b9250828210156119a1576119a0611900565b5b828203905092915050565b60006119b782611184565b915060008214156119cb576119ca611900565b5b60018203905091905056fea26469706673582212205e58486e4a43b6cb795fd0d068154efadd4d8a347a6d3878d4a21577fa8aaf0e64736f6c634300080a0033",
  "immutableReferences": {},
  "source": "pragma solidity >=0.4.16 <0.9.0;\n\nimport \"./veritas-helper.sol\";\n\ncontract Veritas is VeritasHelper {\n    constructor() {\n        ceo = msg.sender;\n    }\n\n    // function createProduct(string memory _name, string memory description, uint sku, address _manufacturer) public isCEO(msg.sender) returns(uint) {\n    function createProduct(string memory _name, string memory description, uint sku, address _manufacturer) public returns(uint) {\n        products.push(Product(_name, description, sku, sku, _manufacturer, _manufacturer));\n        productCount[_manufacturer]++;\n        uint _id = products.length - 1;\n        productOwners[_id] = _manufacturer;\n        Product storage _product = products[_id];\n        _product.id = uint(_id);\n        return _id;\n        // products.push(Product(_name, _manufacturer, address(0)));\n    }\n\n    function sellProduct(uint _id, address _owner) public isSaleAuthorized(msg.sender, _id) {\n        _transferProduct(msg.sender, _owner, _id);\n    }\n\n    function transferProduct(uint _id, address _newOwner) public isOwner(msg.sender, _id) {\n        _transferProduct(msg.sender, _newOwner, _id);\n    }\n\n    function getAllProducts(address _owner) external view returns(Product[] memory) {\n        Product[] memory result = new Product[](productCount[_owner]);\n        uint counter = 0;\n        for (uint i = 0; i < products.length; i++) {\n            if (products[i].owner == _owner) {\n                result[counter] = products[i];\n                counter++;\n            }\n        }\n        return result;\n    }\n}",
  "sourcePath": "/Users/rounaksalim/Documents/git/sjsu/Fall-2021/CMPE-272/Veritas/contracts/veritas.sol",
  "compiler": {
    "name": "solc",
    "version": "0.8.10+commit.fc410830.Emscripten.clang"
  },
  "schemaVersion": "3.4.3",
  "updatedAt": "2021-12-01T02:22:18.063Z",
  "networkType": "ethereum",
  "devdoc": {
    "kind": "dev",
    "methods": {},
    "version": 1
  },
  "userdoc": {
    "kind": "user",
    "methods": {},
    "version": 1
  }
}